:0B035C001203151202C512032980FED7
:0B036700EF1FAC0670011E4C70F62268
:1002A700D3EF9400EE940040147D6E7C00ED1D703A
:0D02B700011CED4C70F7EF1F70E61E80E398
:0102C4002217
:1002E100C2A6C2A5C2A78F807F017E001202A7D23B
:0B02F100A77F017E001202A7C2A72217
:0A028200AB12AA13A9141202FCFF2C
:10028C00D2A6C2A5C2A78F807F017E001202A7D280
:0B029C00A77F017E001202A7C2A7226C
:100315007F381202E17F0C1202E17F061202E17FB3
:04032500010202E1EE
:050003007F010202E193
:0800CA008F118B128A138914B7
:1000D200E4F515EDD39401400302015CE511940FA0
:1000E2005078EDC394015039AB12AA13A91412022D
:1000F200FC6067C374109511FFE515C39FE51550A9
:1001020006248025118004251124B0FF1202E11279
:10011200028274012514F514E43513F513051580D4
:10012200C7AB12AA13A9141202FC602EC374109555
:1001320011FFE515C39FE515500624C02511800463
:1001420025112470FF1202E112028274012514F5B6
:0A01520014E43513F513051580C7FA
:01015C002280
:0E034E0074696D653A0030303A3030003A0084
:10033D0002160000011C30011A30011B300119306A
:10032900758901C28DD28C758CFC758A17D2A9D2B8
:04033900AFC2B92274
:1002C5001200037BFF7A03794EE4FDFF1200CA7B1F
:0C02D500FF7A0379547D01E4FF0200CAA7
:10023B008F088D098B0A7B007A0079087D01E4FF1A
:10024B001200CA7B007A0079097D017F011200CA76
:10025B007BFF7A03795A7D017F021200CA7B007AF9
:10026B0000790A7D017F031200CA7B007A00790BAB
:07027B007D017F040200CAAF
:03000B0002000EE2
:10000E00C0E0C0F0C083C082C0D075D000C000C0B8
:10001E0001C002C003C004C005C006C007120329F8
:10002E000517E51770020516C394E8E5166480946B
:10003E0083406E751600751700AF191201E98F18FF
:10004E00E5196439704C851819AF1B1201E98F1828
:10005E00E51B64357037751B30AF1A1201E98F1826
:10006E00E51A6439702285181AAF1C1201E98F182F
:10007E00E51CB4350E751C30751A30751B307519AC
:10008E0030801285181C800D85181A800885181B63
:10009E00800385181985190BAB1BAD1AAF1C120204
:1000AE003BD007D006D005D004D003D002D001D06B
:0C00BE0000D0D0D082D083D0F0D0E0324F
:1001E900EF24D0B40A0050499001FF75F003A4C56B
:1001F9008325F0C5837302021D0202200202230235
:10020900022602022902022C02022F0202320202F3
:10021900350202387F31227F32227F33227F342216
:100229007F35227F36227F37227F38227F39227F0E
:02023900302271
:0300000002015D9D
:0C015D00787FE4F6D8FD75811C0201A437
:1002FC00BB010689828A83E0225002E722BBFE0200
:09030C00E32289828A83E4932232
:1001690002035CE493A3F8E493A34003F68001F24D
:1001790008DFF48029E493A3F85407240CC8C33397
:10018900C4540F4420C8834004F456800146F6DF66
:10019900E4800B010204081020408090033DE47EB6
:1001A900019360BCA3FF543F30E509541FFEE4935B
:1001B900A360010ECF54C025E060A840B8E493A322
:1001C900FAE493A3F8E493A3C8C582C8CAC583CA4D
:1001D900F0A3C8C582C8CAC583CADFE9DEE780BE05
:01034D0000AF
:00000001FF
