:10013C001201D512018CBF010FE50B640160037530
:10014C00A0FE750B01750A01BF020FE50B6402607E
:10015C000375A07F750B02750A02BF030FE50B64D4
:10016C0003600375A0FE750B03750A03BF04C4E599
:10017C000B6404600375A07F750B04750A0480B3CF
:0700030002080000010A00E1
:1001D500758901C28DD28C758CFC758A17D2A9D20E
:0401E500AFC2B922CA
:03000B0002000EE2
:10000E00C0E0C0D075D000C0071201D50509E509C2
:10001E0070020508C394E8E50864809483407C75FB
:10002E000800750900E50AB40115E5A0B47F057551
:10003E00A0FE800BE5A0F4FFE5A0F42FF4F5A0E5FB
:10004E000AB40212E5A0B4FE0575A07F8008E5A0F3
:10005E00F4C313F4F5A0E50A64037020E5A0B4BF61
:10006E000575A0FE8016E5A0F4FFE5A0F42FF4F5CB
:10007E00A0E5A0F4FFE5A0F42FF4F5A0E50AB40482
:10008E001AE5A0B4FD0575A07F8010E5A0F4C3139A
:10009E00F4F5A0E5A0F4C313F4F5A0D007D0D0D0AA
:0200AE00E0323E
:0801E9007FD87E25DEFEDFFC5D
:0101F10022EB
:10018C00E4FD20B10E1201E930B1FD7D011201E94F
:10019C007F012220B20E1201E930B2FD7D03120163
:1001AC00E97F032220B30E1201E930B3FD7D041266
:1001BC0001E97F042220B00E1201E930B0FD7D026E
:0801CC001201E97F0222AF05D8
:0101D4002208
:030000000200B04B
:0C00B000787FE4F6D8FD75810B0200F7A4
:1000BC0002013CE493A3F8E493A34003F68001F21D
:1000CC0008DFF48029E493A3F85407240CC8C33345
:1000DC00C4540F4420C8834004F456800146F6DF14
:1000EC00E4800B0102040810204080900003E47EA1
:1000FC00019360BCA3FF543F30E509541FFEE49309
:10010C00A360010ECF54C025E060A840B8E493A3CF
:10011C00FAE493A3F8E493A3C8C582C8CAC583CAFA
:10012C00F0A3C8C582C8CAC583CADFE9DEE780BEB2
:01000A0000F5
:00000001FF
