:10019200202008FF101010FF00000E15150C0000A3
:1001A20000FF01020000FF010200000E1111110EFA
:0301B2000000FD4D
:10008F001201BF752801E4F52974072528F8E6FD4C
:10009F007F0112011374082528F8E6FD7F02120173
:1000AF001374092528F8E6FD7F03120113740A253E
:1000BF0028F8E6FD7F04120113740B2528F8E6FDDE
:1000CF007F05120113740C2528F8E6FD7F06120137
:1000DF0013740D2528F8E6FD7F07120113740E2502
:1000EF0028F8E6FD7F081201130529E529C39408B6
:1000FF004097E528B41903E4F5280528E528D3949B
:04010F0019408322EE
:0501C600C2B6C2B52223
:02016300AD07E6
:10016500E4FC74807E00A804088006CEA2E713CEC6
:1001750013D8F8FFEDFBEF5B6004D2B48002C2B484
:0C018500D2B6C2B60CBC08DAD2B5C2B5C6
:01019100224B
:0801B6007F057E50DEFEDFFC38
:0101BE00221E
:0701BF001201C67580FF224A
:100113008F2AAE05AF06120163E52AB40103758089
:100123007FE52AB402037580BFE52AB40303758013
:10013300DFE52AB404037580EFE52AB4050375806F
:10014300F7E52AB406037580FBE52AB40703758037
:10015300FDE52AB408037580FE1201B67580FF22FF
:03000000020003F8
:0C000300787FE4F6D8FD75812A02004ADF
:10000F0002008FE493A3F8E493A34003F68001F278
:10001F0008DFF48029E493A3F85407240CC8C333F2
:10002F00C4540F4420C8834004F456800146F6DFC1
:10003F00E4800B0102040810204080900192E47EBE
:10004F00019360BCA3FF543F30E509541FFEE493B6
:10005F00A360010ECF54C025E060A840B8E493A37D
:10006F00FAE493A3F8E493A3C8C582C8CAC583CAA8
:10007F00F0A3C8C582C8CAC583CADFE9DEE780BE60
:0101B5000049
:00000001FF
