:080131007F0B7EBEDEFEDFFC49
:0101390022A3
:1000F000E4FD7F011200031200B18F08E50860F7EC
:10010000FD7F01120003E4F509F50AC3E50A94F442
:10011000E509940150E1B2A5120131050AE50A7022
:05012000EA050980E67C
:08013A007FD87E25DEFEDFFC0C
:01014200229A
:1000B10020B10C12013A30B1FD12013A7F01222028
:1000C100B00C12013A30B1FD12013A7F022220B286
:1000D1000C12013A30B1FD12013A7F032220B30C18
:0F00E10012013A30B1FD12013A7F04227F002252
:10000300EF14B40800505490001875F003A4C5838E
:1000130025F0C58373020030020034020038020069
:100023003C020040020048020050020058D2A28065
:100033000ED2A28012D2A28016D2A2801AC2A2D25B
:10004300A3D2A48016C2A2D2A3C2A4800EC2A2C20B
:10005300A3D2A48006C2A2C2A3C2A4EDB40A0050D4
:100063004C90006BF828287302008902008D02006F
:100073009102009502009902009D0200A10200A5D1
:100083000200A90200AD75803F22758006227580AB
:100093005B2275804F227580662275806D22758084
:0E00A3007D227580072275807F2275806F2276
:03000000020125D5
:0C012500787FE4F6D8FD75810A0200F036
:00000001FF
