:10000E00F88CF8F3F95BF9B8FA15FA67FAB9FB044C
:10001E00FB4BFB90FBCFFC10FC44FC79FCACFCDCF6
:10002E00FD09FD34FD5CFD82FDA6FDC8FDE8FE0662
:10003E00FE22FE3DFE56FE6EFE85FE9AFEAEFEC111
:10004E00FED3FEE4FEF4FF030000131A1810181A74
:10005E001C1A181A131A1810181A1C1A181A131A0E
:10006E001810181A1C1A181A131A1810181C1F21F7
:10007E001F24181A1A181C241C1F2123211F1C1A96
:10008E001A181A1A1C1824181C1F02020204010145
:10009E00010101010202020401010101010102023A
:1000AE000204010101010101020202040202020422
:1000BE00040404020202040201010202020202020C
:0A00CE000202020202040101010116
:100143005389F0438901758A18758CFCC28DD28C52
:07015300D2A9D2AFC2B9220C
:03000B000200D818
:1000D800C0E0C083C082C0D075D000C005C006E5AE
:1000E8000890005893FD25E0240EF582E43400F5CD
:1000F80083E493FE740193F58AEEF58CED25E024F4
:100108000EF582E43400F5837401937002E4936081
:1001180002B2A5D006D005D0D0D082D083D0E032AC
:08017D007F367EC7DEFEDFFCC9
:010185002257
:10015A00E4FEEEC39F500F7D027C4E7B79DBFEDC12
:06016A00FCDDFA0E80EC42
:01017000226C
:10012800E4F508120143E50890009893FF12015A7C
:0B0138000508C28C12017DD28C80EB08
:0300000002017189
:0C017100787FE4F6D8FD758108020128B3
:00000001FF
