:100919003230002F003A004D6F6E00547565730038
:100929005765640054485552530046524900534193
:10093900540053554E002020002020202000202064
:0A0949002020200054696D653A007B
:1009E2000721190203120D0C020728190203120D26
:0209F2000C1FD8
:100396007B007A00792812065D7BFF7A097919E4D9
:1003A600FD7F0612053EAB28E4FD7F081207FF7BA2
:1003B600FF7A09791CE4FD7F0A12053EAB2AE4FDAB
:1003C6007F0B1207FF7BFF7A09791CE4FD7F0D1274
:1003D600053EAB2BE4FD7F0E1207FFAB2C7D01E43F
:1003E600FF1207FF7BFF7A09791E7D017F02120546
:1003F6003EAB2D7D017F031207FF7BFF7A09791E35
:100406007D017F0512053EAB2E7D017F061207FF9B
:10041600E529B4010D7BFF7A0979207D017F091258
:10042600053EE529B4020D7BFF7A0979247D017F1B
:100436000912053EE529B4030D7BFF7A0979297D6A
:10044600017F0912053EE529B4040D7BFF7A09797F
:100456002D7D017F0912053EE529B4050D7BFF7A46
:100466000979337D017F0912053EE529B4060D7B26
:10047600FF7A0979377D017F0912053EE529B40720
:0F0486000D7BFF7A09793B7D017F0912053E222C
:1001E6008F0B200106E50B640560167BFF7A097903
:1001F60019E4FD7F0612053EAB28E4FD7F081207D1
:10020600FF7BFF7A09791CE4FD7F0A12053E200177
:1002160006E50B64046009AB2AE4FD7F0B1207FFB9
:100226007BFF7A09791CE4FD7F0D12053E2001064D
:10023600E50B64036009AB2BE4FD7F0E1207FF207C
:100246000106E50B64026009AB2C7D01E4FF120791
:10025600FF7BFF7A09791E7D017F0212053E200190
:1002660006E50B64016009AB2D7D017F031207FFD4
:100276007BFF7A09791E7D017F0512053E20010468
:10028600E50B6009AB2E7D017F061207FF200109F1
:10029600E50B6406700302031DE529B4010D7BFF1F
:1002A6007A0979207D017F0912053EE529B4020D00
:1002B6007BFF7A0979247D017F0912053EE529B481
:1002C600030D7BFF7A0979297D017F0912053EE539
:1002D60029B4040D7BFF7A09792D7D017F0912056A
:1002E6003EE529B4050D7BFF7A0979337D017F0947
:1002F60012053EE529B4060D7BFF7A0979377D01A3
:100306007F0912053EE529B4070D7BFF7A09793B83
:100316007D017F0912053E200175E50B700A7BFF02
:100326007A09793F7D018051E50BB4010C7BFF7A98
:1003360009793F7D017F038053E50BB4020C7BFFF7
:100346007A09793F7D01E4FF8042E50BB4030C7B1B
:10035600FF7A09793FE4FD7F0E8031E50BB4040C8A
:100366007BFF7A09793FE4FD7F0B8020E50BB4051E
:100376000C7BFF7A097942E4FD7F06800FE50BB41A
:10038600060D7BFF7A0979477D017F0912053E221A
:10000300E4F50AD200FB7A00792812065D0509E5BA
:1000130009D394044005E4F509B200A2009201AFAC
:100023000A1201E612089E8F08E508B4010BB2021A
:100033007B007A007928020495E508B4020C050ACE
:10004300E50AD394064003E4F50AE5086403600374
:1000530002011BE50AB407005036900064F8282813
:100063007302007902007D0200810200850200898B
:1000730002008D020091052E8016052D8012052C9D
:10008300800E052B800A052A800605288002052993
:10009300E528D394634003E4F528E529D394074086
:1000A30003752901E52AD3940C4003752A01E52A37
:1000B300B4020FE52854037009E52BD3941D403A8D
:1000C3008035E52AB40209E52BD3941C402C802704
:1000D300E52A64046011E52A6406600BE52A6409D5
:1000E3006005E52AB40B09E52BD3941E400C800769
:1000F300E52BD3941F4003752B01E52CD3941740B4
:1001030003E4F52CE52DD3943B4003E4F52DE52ED4
:10011300D3943B4003E4F52EE50864046003020036
:1001230010E5287003752864E52C7003752C18E519
:100133002D7003752D3CE52E7003752E3CE50AB436
:100143000700503690014EF828287302016302011C
:100153006702016B02016F02017302017702017BE7
:10016300152E8016152D8012152C800E152B800A46
:10017300152A8006152880021529E529700375299B
:1001830007E52A7003752A0CE52AB40213E52854FF
:1001930003700DE52B6003020010752B1D02001088
:1001A300E52AB4020DE52B6003020010752B1C0237
:1001B3000010E52A64046011E52A6406600BE52A51
:1001C30064096005E52AB40B0DE52B6003020010FA
:1001D300752B1E020010E52B6003020010752B1F08
:0301E30002001007
:1008DD00120A331209CE7BFF7A09794DE4FDFF121E
:1008ED00053EE4FD7F8E12075C1209FF7B007A0046
:1008FD007921120495C20212089EBF0102B2023084
:0C090D00020512000380F012039680EB3C
:0B0A1A00EF1FAC0670011E4C70F622AE
:10097800D3EF9400EE940040147D6E7C00ED1D7062
:0D098800011CED4C70F7EF1F70E61E80E3C0
:01099500223F
:020A380020009C
:1009B300C2A6C2A5C2A78F807F017E00120978D28A
:0B09C300A77F017E00120978C2A72266
:0A095300AB13AA14A9151206E2FF67
:10095D00D2A6C2A5C2A78F807F017E00120978D2D0
:0B096D00A77F017E00120978C2A722BC
:1009CE007F381209B37F0C1209B37F061209B37F69
:0409DE00010209B356
:050A2E007F010209B385
:08053E008F128B138A1489153A
:10054600E4F516EDD3940140030205D0E512940FAD
:100556005078EDC394015039AB13AA14A9151206AD
:10056600E26067C374109512FFE516C39FE5165047
:1005760006248025128004251224B0FF1209B31226
:10058600095374012515F515E43514F5140516807F
:10059600C7AB13AA14A9151206E2602EC3741095F0
:1005A60012FFE516C39FE516500624C025128004E7
:1005B60025122470FF1209B312095374012515F58B
:0A05C60015E43514F514051680C77E
:0105D0002208
:0607AF008F178D188B1955
:1007B500751B64E4F51AE519851BF0842430F51CD6
:1007C500E517251AFF7B007A00791CAD1812053E46
:1007D500E519851BF08485F019E51B75F00A84F58C
:1007E5001B051AE51AC3940340CCE517251AFF7BB0
:0A07F500FF7A0A7938AD1802053EBC
:0607FF008F0C8D0D8B0E26
:1008050075100AE4F50FE50E8510F0842430F51116
:10081500E50C250FFF7B007A007911AD0D12053E21
:10082500E50E8510F08485F00EE51075F00A84F567
:1008350010050FE50FC3940240CCE50C250FFF7B97
:0A084500FF7A0A7938AD0D02053E76
:050A3300C2B5C2B622AD
:02075C00A907EB
:10075E00E4FBD2B574017E00A803088005C333CE36
:10076E0033CED8F9FFE9F582EF558224FF92B4D249
:10077E00B6C2B60BBB08DDE4FB74017E00A803080D
:10078E008005C333CE33CED8F9FFEDF582EF558217
:10079E0024FF92B4D2B6C2B60BBB08DDC2B5C2B44A
:0107AE002228
:02084F00A907F7
:10085100E4FDFBD2B5C2B474017E00A80308800593
:10086100C333CE33CED8F9FFE9F582EF558224FFA9
:1008710092B4C2B6D2B60BBB08DDE4FBD2B6C2B6A7
:1008810030B40D7401A803088002C333D8FC4205BB
:0C0891000BBB08E8C2B6C2B5C2B4AF058C
:01089D002238
:030A080012084F82
:0E0A0B00EFC4540F75F00AA4FEEF540F2EFF37
:010A190022BA
:0A099600AB0BAA0CA90D1206FBFF23
:1009A000EF75F00A84C454F0FEEF75F00A84EE256A
:0209B000F0FF56
:0109B2002222
:0A09F500AB0BAA0CA90DEF12073A94
:0809FF007F0B7EBEDEFEDFFC73
:010A070022CC
:100495008B0B8A0C890DE4FD7F8E12075C1209FF18
:1004A500AB0BAA0CA90D1206E2FF1209A0AD077F3E
:1004B5008C12075C1209FF900001120996AD077FA7
:1004C5008A12075C1209FF900002120996AD077F98
:1004D5008812075C1209FFAB0BAA0CA90D9000034B
:1004E50012099CAD077F8612075C1209FFAB0BAAA8
:1004F5000CA90D90000412099CAD077F8412075CBE
:100505001209FFAB0BAA0CA90D90000512099CADB1
:10051500077F8212075C1209FFAB0BAA0CA90D908D
:10052500000612099CAD077F8012075C1209FF7D4A
:09053500807F8E12075C0209FFB1
:10065D008B0B8A0C890D7F8D120A08AB0BAA0CA986
:10066D000DEF1207281209FF7F8B120A0890000167
:10067D001209F57F8912084F120A0B900002120918
:10068D00F57F8712084F120A0BAB0BAA0CA90D9020
:10069D0000031209FB7F8512084F120A0BAB0BAA40
:1006AD000CA90D9000041209FB7F8312084F120A4A
:1006BD000BAB0BAA0CA90D9000051209FB7F811243
:1006CD00084F120A0BAB0BAA0CA90D900006EF12E6
:0506DD00073A0209FFCD
:080A25007F967E25DEFEDFFC5A
:010A2D0022A6
:10089E0020B10C120A2530B1FD120A257F0122204B
:1008AE00B00C120A2530B1FD120A257F022220B2A9
:1008BE000C120A2530B1FD120A257F032220B30C3B
:0F08CE00120A2530B1FD120A257F04227F002275
:030000000205D125
:0C05D100787FE4F6D8FD75812E02061834
:1006E200BB010689828A83E0225002E722BBFE0216
:0906F200E32289828A83E4932249
:1006FB00BB010CE58229F582E5833AF583E02250B4
:10070B0006E92582F8E622BBFE06E92582F8E222FD
:0D071B00E58229F582E5833AF583E4932217
:10072800BB010689828A83F0225002F722BBFE01B0
:02073800F322AA
:10073A00F8BB010DE58229F582E5833AF583E8F0F5
:10074A00225006E92582C8F622BBFE05E92582C8A1
:02075A00F22289
:1005DD000208DDE493A3F8E493A34003F68001F24F
:1005ED0008DFF48029E493A3F85407240CC8C3331F
:1005FD00C4540F4420C8834004F456800146F6DFEE
:10060D00E4800B01020408102040809009E2E47E92
:10061D00019360BCA3FF543F30E509541FFEE493E2
:10062D00A360010ECF54C025E060A840B8E493A3A9
:10063D00FAE493A3F8E493A3C8C582C8CAC583CAD4
:10064D00F0A3C8C582C8CAC583CADFE9DEE780BE8C
:0109F4000002
:00000001FF
