:0702410048656C6C6F2100A1
:100140001201F47B637D017F011202377BFF7A028B
:1001500079417D017F031201B77511037B907A010C
:100160007D017F0A120097750C037B707AFE7D0279
:100170007F011201807B6B7D027F061200FF80FEF3
:06020800C2A58F80D2A701
:08020E007F027EC7DEFEDFFC6B
:0102160022C5
:0A022300C2A6120208C2A702020ED2
:0A022D00D2A6120208C2A702020EB8
:1001F4007F381202237F0C1202237F061202237F10
:0402040001020223CE
:0A0237008B081201DDAF0802022D52
:0601B7008B088A09890A89
:1001BD00E4F50B1201DDAB08AA09A90A850B8275BE
:0F01CD008300120003FF600712022D050B80E76D
:0101DC002200
:1001DD00AE07BD0106EE1444808007BD0208EE1483
:0701ED0044C0FF12022322AF
:080097008F0D8A0F8B10A905E3
:10009F00751200751301E4FBE51114FFEBC39F50BC
:1000AF0012AE12AF137C007D0A1200308E128F1326
:1000BF000B80E5AD01AF0D1201DDE4FBEBC3951134
:1000CF00502DAC12AD13AE0FAF101200427C007D5D
:1000DF000A120042AA05EA2430FF12022DAE12AF17
:0F00EF00137C007D0A1200428E128F130B80CDFE
:0100FE0022DF
:04018000AC07A9051A
:100184001201DDC3EA64809480400B7F2B12022DA0
:100194008A838B82800E7F2D12022DC3E49BF5820D
:1001A400E49AF583EC04FFAD01AB82AA83850C11BC
:0301B400020097AF
:1000FF007508007509101201DDE4FAEBFF7E00AC04
:10010F0008AD09120042EF540FFEC3940AEE5004DB
:10011F00243080022437FF12022DE508C4F854F072
:10012F00C868F508E509C4540F48F5090ABA02CBA7
:01013F00229D
:03000000020217E2
:0C021700787FE4F6D8FD758113020140E9
:10000300BB010CE58229F582E5833AF583E02250B2
:1000130006E92582F8E622BBFE06E92582F8E222FC
:0D002300E58229F582E5833AF583E4932216
:10003000EF8DF0A4A8F0CF8CF0A428CE8DF0A42EE4
:02004000FE229E
:10004200BC000BBE0029EF8DF084FFADF022E4CCA2
:10005200F875F008EF2FFFEE33FEEC33FCEE9DEC6B
:10006200984005FCEE9DFE0FD5F0E9E4CEFD22EDB1
:10007200F8F5F0EE8420D21CFEADF075F008EF2FFB
:10008200FFED33FD4007985006D5F0F222C398FDEC
:050092000FD5F0EA2289
:00000001FF
