:03022800011600BC
:10015200120214E4F517F518AD177F0112000E1202
:10016200019CEF6401702A0517E517D3940340033D
:10017200E4F517E5177002F518E517B401037518D1
:1001820028E517B40203751864E517B4030375185C
:0A019200C8AD177F0112000E80C5F2
:03000B000201DB14
:1001DB00C0E0C0D0758A9C758CFF0516E516D395CB
:0E01EB00184004C2908002D290D0D0D0E032F2
:03022B00011000BF
:0700030074072FF8A6052287
:10000E00EF14B40800505490002375F003A4C58378
:10001E0025F0C5837302003B02004B020043020031
:10002E005B02003F020053020047020063D2A2802F
:10003E000ED2A28012D2A28016D2A2801AC2A2D250
:10004E00A3D2A48016C2A2D2A3C2A4800EC2A2C200
:10005E00A3D2A48006C2A2C2A3C2A4EDB40C0050C7
:10006E0056900076F828287302009A02009E02002D
:10007E00A20200A60200AA0200AE0200B20200B660
:10008E000200BA0200BE0200C50200C275803F2205
:10009E007580062275805B2275804F2275806622E0
:1000AE0075806D2275807D227580072275807F2276
:0800BE0075806F22758040225D
:1001F900E51004FF74082510F8E6FD12000E05103D
:0B020900E510D394074003E4F5102239
:0C022E00011530011330011430011230B2
:10021400758901C28DD28C758A18758CFCD2A9D2CD
:04022400AFC2B9228A
:08023B007F967E25DEFEDFFC4C
:010243002298
:10019C0020B10C12023B30B1FD12023B7F01222038
:1001AC00B00C12023B30B1FD12023B7F022220B296
:1001BC000C12023B30B1FD12023B7F032220B30C28
:0F01CC0012023B30B1FD12023B7F04227F002262
:030000000200C635
:0C00C600787FE4F6D8FD75811802010D6A
:1000D200020152E493A3F8E493A34003F68001F2F1
:1000E20008DFF48029E493A3F85407240CC8C3332F
:1000F200C4540F4420C8834004F456800146F6DFFE
:10010200E4800B0102040810204080900228E47E63
:10011200019360BCA3FF543F30E509541FFEE493F2
:10012200A360010ECF54C025E060A840B8E493A3B9
:10013200FAE493A3F8E493A3C8C582C8CAC583CAE4
:10014200F0A3C8C582C8CAC583CADFE9DEE780BE9C
:01023A0000C3
:00000001FF
