:09051A00011B00011C00011D0081
:080632007F367EC7DEFEDFFC0F
:01063A00229D
:1000C6001205F8E4F51AF518F51912065BBF0102D8
:1000D600B20212065BBF0207E4F51AF518F519120B
:1000E600065BBF031BAD19E4FF12047B120632AD9B
:1000F600187F0112047B120632AD1A7F0212047BAE
:1001060012065BBF0415E4FF12043F8F197F01122C
:10011600043F8F187F0212043F8F1AE51975F00A03
:1001260084FD7F01120654E51975F00A84ADF07F4F
:10013600021206547D0B7F03120654E51875F00A69
:1001460084FD7F04120654E51875F00A84ADF07F2D
:10015600051206547D0B7F06120654E51A75F00A41
:1001660084FD7F07120654E51A75F00A84ADF07F08
:07017600081206540200D03C
:1004CF00300222051AE51AC3940A4019E4F51A05F9
:1004DF0018E518943C400EE4F5180519E519943CFD
:0604EF004003E4F51922B0
:03000B0002029C52
:10029C00C0E0C0F0C083C082C0D075D000C000C028
:1002AC0001C002C003C004C005C006C007758A188F
:1002BC00758CFC051B051C051DE51BC39414400621
:1002CC00751B00120307E51CC394024006751C0045
:1002DC001205B0E51DC394644006751D001204CFD1
:1002EC00D007D006D005D004D003D002D001D00066
:0B02FC00D0D0D082D083D0F0D0E03210
:04047B008F368D37F4
:10047F001206611200037FA01204A612061A920040
:10048F00AF361204A612061A9200AF371204A61244
:07049F00061A920002064D4F
:02043F008F36F6
:100441001206611200037FA01204A612061A92007E
:10045100AF361204A612061A9200120661120003A8
:100461007FA11204A612061A920012053D8F37D2FF
:090471000112063B12064DAF37E3
:01047A00225F
:05066100D2A0D2A1228D
:08000300120661C2A0C2A12295
:07064D00C2A0D2A1D2A0223D
:0204A600AD07A0
:1004A800E4FB74807E00A803088006CEA2E713CE82
:1004B80013D8F8FFEDF582EF558224FF92A0D2A160
:0604C800C2A10BBB08DC21
:0104CE00220B
:10053D00E4FFD2A0FED2A130A00D7480A8060880E1
:0D054D0002C313D8FC4207C2A10EBE08E88D
:01055A00227E
:09063B00A20192A0D2A1C2A122E9
:0C061A00D2A0D2A1A2A09201C2A1A20114
:0106260022B1
:0B062700EF1FAC0670011E4C70F622A5
:10055B00D3EF9400EE940040147D6E7C00ED1D7083
:0D056B00011CED4C70F7EF1F70E61E80E3E1
:010578002260
:02066B0020006D
:10059500C2A6C2A5C2A78F807F017E0012055BD2CD
:0B05A500A77F017E0012055BC2A722A9
:0A04F500AB2EAA2FA9301205CBFF91
:1004FF00D2A6C2A5C2A78F807F017E0012055BD254
:0B050F00A77F017E0012055BC2A7223F
:1005E4007F381205957F0C1205957F061205957FBD
:0405F4000102059566
:050666007F0102059573
:08017D008F2D8B2E8A2F893093
:10018500E4F531EDD39401400302020FE52D940F00
:100195005078EDC394015039AB2EAA2FA930120522
:1001A500CB6067C37410952DFFE531C39FE53150D2
:1001B500062480252D8004252D24B0FF12059512D7
:1001C50004F574012530F530E4352FF52F05318020
:1001D500C7AB2EAA2FA9301205CB602EC37410957C
:1001E5002DFFE531C39FE531500624C0252D800440
:1001F500252D2470FF1205951204F574012530F59F
:0A02050030E4352FF52F053180C7D6
:01020F0022CC
:060358008F218D228B2392
:10035E00752564E4F524E5238525F0842430F526FF
:10036E00E5212524FF7B007A007926AD2212017D3E
:10037E00E5238525F08485F023E52575F00A84F5BF
:10038E00250524E524C3940340CCE5212524FF7BD9
:0A039E00FF7A06796BAD2202017DA3
:0603A8008F278D288B2930
:1003AE00752B0AE4F52AE529852BF0842430F52CEB
:1003BE00E527252AFF7B007A00792CAD2812017DD6
:1003CE00E529852BF08485F029E52B75F00A84F557
:1003DE002B052AE52AC3940240CCE527252AFF7B6C
:0A03EE00FF7A06796BAD2802017D4D
:06052300011E00011F0093
:080644007F967E25DEFEDFFC3F
:01064C00228B
:05065B00AF1FE4F51FD4
:010660002277
:1003070020B103751E0120B003751E0220B20375CC
:100317001E0320B303751E0430B13530B03230B23E
:100327002F30B32CE51EB40106E4F51E751F01E559
:100337001EB40206E4F51E751F02E51EB40306E4AB
:10034700F51E751F03E51EB40406E4F51E751F04AC
:010357002283
:03052900011000BE
:0706540074072FF8A6052230
:10000E00EF14B40800505490002375F003A4C58378
:10001E0025F0C5837302003B02004B020043020031
:10002E005B02003F020053020047020063D2A2802F
:10003E000ED2A28012D2A28016D2A2801AC2A2D250
:10004E00A3D2A48016C2A2D2A3C2A4800EC2A2C200
:10005E00A3D2A48006C2A2C2A3C2A4EDB40C0050C7
:10006E0056900076F828287302009A02009E02002D
:10007E00A20200A60200AA0200AE0200B20200B660
:10008E000200BA0200BE0200C50200C275803F2205
:10009E007580062275805B2275804F2275806622E0
:1000AE0075806D2275807D227580072275807F2276
:0800BE0075806F22758040225D
:1005B000E51004FF74082510F8E6FD12000E051082
:0B05C000E510D394074003E4F510227F
:0E060C0074696D653A0030303A3030003A00C3
:10052C000211000001173001153001163001143092
:1005F800758901C28DD28C758A18758CFCD2A9D2E6
:04060800AFC2B922A2
:100579001206667BFF7A06790CE4FDFF12017D7B8A
:0C058900FF7A0679127D01E4FF02017D7B
:1003F8008F328D338B347B007A0079327D01E4FFB4
:1004080012017D7B007A0079337D017F0112017D25
:100418007BFF7A0679187D017F0212017D7B007AC5
:100428000079347D017F0312017D7B007A007935E4
:070438007D017F0402017D3C
:03000000020210E9
:0C021000787FE4F6D8FD758137020257B4
:1005CB00BB010689828A83E0225002E722BBFE022E
:0905DB00E32289828A83E4932261
:10021C000200C6E493A3F8E493A34003F68001F232
:10022C0008DFF48029E493A3F85407240CC8C333E3
:10023C00C4540F4420C8834004F456800146F6DFB2
:10024C00E4800B010204081020408090051AE47E23
:10025C00019360BCA3FF543F30E509541FFEE493A7
:10026C00A360010ECF54C025E060A840B8E493A36E
:10027C00FAE493A3F8E493A3C8C582C8CAC583CA99
:10028C00F0A3C8C582C8CAC583CADFE9DEE780BE51
:01053C0000BE
:00000001FF
