:0800C4007FD87E25DEFEDFFC83
:0100CC002211
:10000300E4FB30B00930B10630B20320B3F430B0B2
:100013001E30B21B30B318EC6401600375A0FF20DF
:10002300B1067C01C2A08002D2A01200C480DF30DE
:10003300B11E30B21B30B318EC600375A0FF20B0C3
:10004300EEE4FC1200C430B0FDB2A01200C480DFA5
:1000530030B02530B12230B31FEC64026005E4FDFB
:10006300F4F5A020B2EA7C021200C430B2FD0DED1B
:10007300F4F5A01200C480D830B19330B29030B000
:100083008DEC64036005E4FDF4F5A020B3EA1200EF
:10009300C430B3FDBC0303BB01047D018003ED2D1C
:1000A300FD7C03BD80047B018002E4FBEDF4F5A03D
:0500B3001200C480C32F
:030000000200B843
:0C00B800787FE4F6D8FD75810702000394
:00000001FF
