:1004090050617373776F72643A0030303030006F27
:100419006B006E6F002020003132333430303030C1
:10017300750901780A7C007D007BFF7A0479217E72
:10018300007F041200D3780E7C007D007BFF7A048D
:1001930079257E007F041200D31204627BFF7A0468
:1001A3007909E4FDFF1202F27BFF7A0479137D01E2
:1001B300E4FF1202F21202508F08E508640B602D6F
:1001C300E508640C6027E508640D60217516007569
:1001D30017007518097B007A00790EAD08120385A4
:1001E3007B007A00790E7D01E4FF1202F2E50864D8
:1001F3000C7029E50EB50A17E50FB50B12E510B51E
:100203000C0DE511B50D087BFF7A04791880067B88
:10021300FF7A04791BE4FD7F0E1202F2E508640DF8
:1002230070937509017BFF7A0479137D01FF120234
:10023300F2751130751030750F30750E307BFF7A03
:0D02430004791EE4FD7F0E1202F20201B8E4
:08048D007FD87E25DEFEDFFCB6
:010495002244
:100385008B128A1389148D15AB16AA17A91812009A
:10039500F9B40407740112013F800B74012518F5A7
:1003A50018E43517F517751901AB12AA13A91485A9
:1003B5001982758300120112FFE5197C0024FFF5EF
:1003C50082EC34FFF583EF1201510519E519B404E8
:0F03D500D8AB12AA13A914900003E51502015129
:100250007590FFC29720930912048D3093FD7F3172
:100260002220920912048D3092FD7F3222209109C2
:1002700012048D3091FD7F332220900912048D30BD
:1002800090FD7F34227590FFC29620930912048D51
:100290003093FD7F352220920912048D3092FD7F2C
:1002A000362220910912048D3091FD7F3722209053
:1002B0000912048D3090FD7F38227590FFC2952081
:1002C000930912048D3093FD7F3922209209120484
:1002D0008D3092FD7F302220910912048D3091FDE6
:1002E0007F0C2220900912048D3090FD7F0D227F1B
:0202F0000B22DF
:0B048200EF1FAC0670011E4C70F6224C
:10042900D3EF9400EE940040147D6E7C00ED1D70B6
:0D043900011CED4C70F7EF1F70E61E80E314
:010446002293
:10044700C2A6C2A5C2A78F807F017E00120429D24F
:0B045700A77F017E00120429C2A7222B
:0A03E400AB13AA14A9151200F9FFCB
:1003EE00D2A6C2A5C2A78F807F017E00120429D299
:0B03FE00A77F017E00120429C2A72285
:100462007F381204477F0C1204477F061204477F2D
:040472000102044738
:050496007F0102044794
:0802F2008F128B138A14891589
:1002FA00E4F516EDD394014003020384E512940F4A
:10030A005078EDC394015039AB13AA14A915120001
:10031A00F96067C374109512FFE516C39FE516507E
:10032A0006248025128004251224B0FF12044712E5
:10033A0003E474012515F515E43514F51405168042
:10034A00C7AB13AA14A9151200F9602EC37410952D
:10035A0012FFE516C39FE516500624C02512800435
:10036A0025122470FF1204471203E474012515F5BF
:0A037A0015E43514F514051680C7CC
:010384002256
:0300000002047681
:0C047600787FE4F6D8FD7581190201734F
:10000300E709F608DFFA8046E709F208DFFA803EDF
:1000130088828C83E709F0A3DFFA8032E309F608CC
:10002300DFFA8078E309F208DFFA807088828C8334
:10003300E309F0A3DFFA806489828A83E0A3F608E8
:10004300DFFA805889828A83E0A3F208DFFA804CC2
:1000530080D280FA80C680D4806980F28033801099
:1000630080A680EA809A80A880DA80E280CA803302
:1000730089828A83ECFAE493A3C8C582C8CCC5837A
:10008300CCF0A3C8C582C8CCC583CCDFE9DEE7804A
:100093000D89828A83E493A3F608DFF9ECFAA9F0C9
:1000A300EDFB2289828A83ECFAE0A3C8C582C8CC1F
:1000B300C583CCF0A3C8C582C8CCC583CCDFEADE38
:1000C300E880DB89828A83E493A3F208DFF980CC9A
:1000D30088F0EF60010E4E60C388F0ED2402B40493
:1000E3000050B9F582EB2402B4040050AF2323453A
:0600F3008223900053730C
:1000F900BB010689828A83E0225002E722BBFE0205
:09010900E32289828A83E4932237
:10011200BB010CE58229F582E5833AF583E02250A2
:1001220006E92582F8E622BBFE06E92582F8E222EC
:0D013200E58229F582E5833AF583E4932206
:10013F00BB010689828A83F0225002F722BBFE019F
:02014F00F32299
:10015100F8BB010DE58229F582E5833AF583E8F0E4
:10016100225006E92582C8F622BBFE05E92582C890
:02017100F22278
:00000001FF
