:0D06840054656D70657261747572653A00A1
:100590001206607BFF7A067984E4FDFF12040A12DA
:1005A000069112053D8F0D8E0C8D0B8C0A7D01E49A
:0605B000FF12036E80E95A
:0B06AA00EF1FAC0670011E4C70F62222
:1005DB00D3EF9400EE940040147D6E7C00ED1D7003
:0D05EB00011CED4C70F7EF1F70E61E80E361
:0105F80022E0
:0806B50020002D002B002E0097
:10061500C2A6C2A5C2A78F807F017E001205DBD2CC
:0B062500A77F017E001205DBC2A722A8
:0A05B600AB15AA16A9171202F2FFF6
:1005C000D2A6C2A5C2A78F807F017E001205DBD212
:0B05D000A77F017E001205DBC2A722FE
:100660007F381206157F0C1206157F061206157FBD
:040670000102061568
:0506BD007F010206159B
:08040A008F148B158A16891767
:10041200E4F518EDD39401400302049CE514940F13
:100422005078EDC394015039AB15AA16A9171202E0
:10043200F26067C374109514FFE518C39FE5185066
:1004420006248025148004251424B0FF12061512F8
:1004520005B674012517F517E43516F5160518804B
:10046200C7AB15AA16A9171202F2602EC374109513
:1004720014FFE518C39FE518500624C02514800414
:1004820025142470FF1206151205B674012517F5FE
:0A04920017E43516F516051880C7AB
:01049C00223D
:06049D008F0E8D0F8B1085
:1004A300751264E4F511E5108512F0842430F51318
:1004B300E50E2511FF7B007A007913AD0F12040AB4
:1004C300E5108512F08485F010E51275F00A84F5C5
:1004D300120511E511C3940340CCE50E2511FF7BF2
:0A04E300FF7A0679B5AD0F02040A96
:0604ED008F198D1A8B1B14
:1004F300751D0AE4F51CE51B851DF0842430F51EEB
:10050300E519251CFF7B007A00791EAD1A12040A37
:10051300E51B851DF08485F01BE51D75F00A84F548
:100523001D051CE51CC3940240CCE519251CFF7B6B
:0A053300FF7A0679B5AD1A02040A3A
:10036E008F088D09E4FFFEFDFCAB0DAA0CA90BA8AE
:10037E000A1201A97BFF50207A0679B7AD09AF08A2
:10038E0012040AAF0DAE0CAD0BAC0A1202228F0D89
:10039E008E0C8D0B8C0A800B7A0679B9AD09AF08DD
:1003AE0012040AE50804FFC007AF0DAE0CAD0BAC8E
:1003BE000A120271AB07D007AD0912049DE508249D
:1003CE0004FF7BFF7A0679BBAD0912040AE5082407
:1003DE0005FFC0077F007E407D1C7C46AB0DAA0C3E
:1003EE00A90BA80A1200031202717E007C277D1051
:0C03FE0012030BAB05D007AD0902049DF3
:0406C2007FDDDFFEFB
:0106C6002211
:0406C7007F1DDFFEB6
:0106CB00220C
:0406CC007F01DFFECD
:0106D0002207
:10063000D2B7C2B71206C2D2B71206C7A2B792008B
:080640001206C2A200E433FF20
:01064800228F
:0F067400C2B71206CCA20092B77F16DFFED2B734
:010683002254
:10064900C2B77F02DFFED2B77F02DFFEA2B79200F8
:060659007F16DFFEA20087
:01065F002278
:02056900AD07DC
:10056B00E4FB74017E00A803088005C333CE33CEB1
:10057B00D8F9FFEDF582EF558224FF920012067435
:04058B000BBB08DEC0
:01058F002249
:1005F900E4FEFD120649500D7401A805088002C3E6
:0B06090033D8FC42060DBD08EAAF0626
:0106140022C3
:0D0691001206307FCC1205697F4402056916
:10053D001206307FCC1205697FBE1205691205F9CE
:10054D008F081205F9EFFEE508FFFDAC06EC12026F
:0B055D0038E4FBFA7980784112010CB1
:010568002270
:10000300EC4D6011E8497017ED33EC3304600DE4F7
:10001300FCFFFEFD22E933E8330470F80202DD122F
:1000230002A858046009E4CC248150062850090230
:1000330002E72840030202E4C0E0EB4A7044B980BF
:1000430006D0E0FB0202D3EF4E701CBD8008EBFF2D
:10005300EAFEE9FD80EBE98DF0A4FEE5F00200EC99
:10006300E9CDF9EAFEEBFFEF89F0A4FCE5F0CE89D8
:10007300F0A42EFFE435F0CD89F0A42DFEE435F095
:100083008067EF4E7005BD80D780C3EF8BF0A4ACC3
:10009300F0EE8BF0A42CFCE435F0F8EF8AF0A42CFE
:1000A300E5F038FCE433CB8DF0A42CFCE5F03BF811
:1000B300EE8AF0A42CFCE5F038F8E433CF89F0A401
:1000C3002CFCE5F038CF3400CE89F0A42FFFE5F007
:1000D3003EFEE433C98DF0A42EFEE5F039CD8AF05F
:1000E300A42FFFE5F03EFEE43DFD33D0E0FB5007D7
:1000F3000BBB000F0202E7EC2CFCEF33FFEE33FEE9
:06010300ED33FD0202BF16
:100109000202E7EC5D046005E8590470030202DDB0
:100119001202A8580460F6EC4860F2EC7004FDFE87
:10012900FF22C860DB2481C85009C39860025006C9
:100139000202E49850CAF582E9294B4A7005AB825C
:100149000202D375F0007C1A7880C3EF9BEE9AED1A
:1001590099400DC3EF9BFFEE9AFEED99FDE842F041
:10016900DC23ACF0D0E0FFD0E0FED0E0FDAB822094
:10017900E7101BEB60BAEC2CFCEF33FFEE33FEED1E
:1001890033FD0202BFE803F830E705C0F075F0005F
:10019900EF2FFFEE33FEED33FD40B830E7C280AA02
:1001A90074F8CC6480CCC86480C8F58204604FC3FD
:1001B900EB9FF5F0EA9E42F0E99D42F0E89C45F09C
:1001C900603C501DE5825FFFE582D313CB5BCBF426
:1001D9002B5582FB50280ABA002409B9002008804F
:1001E9001DE5825BFBE582D313CF5FCFF4C3132FE9
:1001F9005582FF50090EBE00050DBD00010CC3EB71
:100209009FF5F0EA9E42F0E99D42F0E89C45F060D6
:0902190007CC4820E701B3EC22F8
:10022200ED33EC33600A047003BD8004ECB2E7FCEA
:0102320022A9
:1002330075F020800E75F010800575F0087D007E46
:10024300007F003392D530D503120360EC334010A6
:10025300EF33FFEE33FEED33FDEC33FCD5F0ED224F
:0E026300E5F0247EA2D513CC92E7CDCEFF228B
:10027100EDD2E7CD33EC3392D524814006E4FFFE85
:10028100FDFC22FCE4CFCECDCC24E0501174FF80E4
:10029100EDC3CC13CCCD13CDCE13CECF13CF047081
:0702A100F030D5DE0203601E
:1002A800E9D2E7C933E833F892D5EDD2E7CD33EC9C
:0702B80033FC5002B2D52215
:1002BF00EC30E7100FBF000C0EBE00080DBD0004A0
:1002CF000BEB6014A2D5EB13FCED92E7FD2274FF4C
:1002DF00FCFDFEFF22E480F8A2D574FF13FC7D80A5
:0302EF00E480EFB9
:0300000002069E57
:0C069E00787FE4F6D8FD758120020590FD
:1002F200BB010689828A83E0225002E722BBFE020A
:09030200E32289828A83E493223C
:10030B00BC000BBE0029EF8DF084FFADF022E4CCD6
:10031B00F875F008EF2FFFEE33FEEC33FCEE9DEC9F
:10032B00984005FCEE9DFE0FD5F0E9E4CEFD22EDE5
:10033B00F8F5F0EE8420D21CFEADF075F008EF2F2F
:10034B00FFED33FD4007985006D5F0F222C398FD20
:05035B000FD5F0EA22BD
:0E036000C3E49FFFE49EFEE49DFDE49CFC22AE
:00000001FF
