:05001E0012000380FE4A
:03002300020026B2
:10002600C0E0C0F0C083C082C0D075D000C000C0A0
:1000360001C002C003C004C005C006C00730980E48
:10004600E599F4FF120080C298AF9912007BD007A1
:10005600D006D005D004D003D002D001D000D0D035
:09006600D082D083D0F0D0E0324A
:030080008FA0222C
:1000030043878075985053890F438920758BF47506
:0B0013008DF4C2ABD28ED2AFD2AC2273
:05007B008F99C29922DB
:0300000002006F8C
:0C006F00787FE4F6D8FD75810702001EC2
:00000001FF
