:0D02A90041444A20204E544320205247007B
:10015C001202867BFF7A0279A97D017F0112022BA4
:10016C007F9C1200FF8E148F15750C03AB15AA140F
:10017C007D027F011200977FDC1200FF8E148F1519
:10018C00750C03AB15AA147D027F061200977FAC89
:10019C001200FF8E148F15750C03AB15AA147D027B
:0701AC007F0B12009780B9E0
:0B02C200EF1FAC0670011E4C70F6220E
:10025100D3EF9400EE940040147D6E7C00ED1D7090
:0D026100011CED4C70F7EF1F70E61E80E3EE
:01026E00226D
:06029A00C2A58F80D2A76F
:0802A0007F027EC7DEFEDFFCD9
:0102A8002233
:0A02CD00C2A612029AC2A70202A004
:0A02D700D2A612029AC2A70202A0EA
:100286007F381202CD7F0C1202CD7F061202CD7F7F
:04029600010202CD92
:0A02E1008B1812026FAF180202D74B
:06022B008B088A09890A14
:10023100E4F50B12026FAB08AA09A90A850B8275B6
:0F0241008300120003FF60071202D7050B80E74E
:01025000228B
:10026F00AE07BD0106EE1444808007BD0208EE14F0
:07027F0044C0FF1202CD2272
:080097008F088A0A8B0BA905F2
:10009F00750D00750E01E4FBE50C14FFEBC39F50CB
:1000AF0012AE0DAF0E7C007D0A1200308E0D8F0E3A
:1000BF000B80E5AD01AF0812026FE4FBEBC3950CAB
:1000CF00502DAC0DAD0EAE0AAF0B1200427C007D71
:1000DF000A120042AA05EA2430FF1202D7AE0DAF72
:0F00EF000E7C007D0A1200428E0D8F0E0B80CD0D
:0100FE0022DF
:0401F400AC07A905A6
:1001F80012026FC3EA64809480400B7F2B1202D7EF
:100208008A838B82800E7F2D1202D7C3E49BF582EE
:10021800E49AF583EC04FFAD01AB82AA8385130C45
:030228000200973A
:1001B30075160075171012026FE4FAEBFF7E00ACA0
:1001C30016AD17120042EF540FFEC3940AEE50040B
:1001D300243080022437FF1202D7E516C4F854F006
:1001E300C868F516E517C4540F48F5170ABA02CBC9
:0101F30022E9
:0200FF00AD074B
:10010100E4F508F509C2B6C2B5FB74807E00A80308
:10011100088006CEA2E713CE13D8F8FFEDF582EFE3
:10012100558224FF92B4D2B6C2B60BBB08DCD2B65C
:10013100E4FBC2B630B714E47E80A803088005CE84
:10014100C313CE13D8F94209EE4208D2B60BBB1045
:0A015100E1C2B6D2B5E508FF7E005A
:01015B002281
:030000000202B643
:0C02B600787FE4F6D8FD75811802015C29
:10000300BB010CE58229F582E5833AF583E02250B2
:1000130006E92582F8E622BBFE06E92582F8E222FC
:0D002300E58229F582E5833AF583E4932216
:10003000EF8DF0A4A8F0CF8CF0A428CE8DF0A42EE4
:02004000FE229E
:10004200BC000BBE0029EF8DF084FFADF022E4CCA2
:10005200F875F008EF2FFFEE33FEEC33FCEE9DEC6B
:10006200984005FCEE9DFE0FD5F0E9E4CEFD22EDB1
:10007200F8F5F0EE8420D21CFEADF075F008EF2FFB
:10008200FFED33FD4007985006D5F0F222C398FDEC
:050092000FD5F0EA2289
:00000001FF
