:0C034F0073746F72656400726561640075
:080372007F367EC7DEFEDFFCD2
:01037A002260
:0C0335007F167E037D7FDDFEDEFCDFFA1C
:010341002299
:10009600E4F508120321801F1201BDEF24FE600E55
:1000A60014601E146041240370EE05088009E508FB
:1000B60070037508FF1508AB08E4FDFF12011D80EB
:1000C600D7AD087F011202387BFF7A03794FE4FD32
:1000D600FF12000312033512039CAB08E4FDFF1266
:1000E600011D12037280B17F011201FC8F087BFF94
:1000F6007A037956E4FDFF12000312033512039CBE
:10010600AB08E4FDFF12011D120372AD087F011258
:070116000238120372808120
:0203A600200035
:1002ED00C2A6C2A5C2A78F807F017E001202B1D225
:0B02FD00A77F017E001202B1C2A72201
:0A028C00AB10AA11A912120308FF1B
:10029600D2A6C2A5C2A78F807F017E001202B1D26C
:0B02A600A77F017E001202B1C2A72258
:100321007F381202ED7F0C1202ED7F061202ED7F83
:04033100010202EDD6
:05039C007F010202EDEB
:080003008F0F8B108A11891286
:10000B00E4F513EDD394014003020095E50F940F33
:10001B005078EDC394015039AB10AA11A9121203F9
:10002B00086067C37410950FFFE513C39FE513506A
:10003B00062480250F8004250F24B0FF1202ED1239
:10004B00028C74012512F512E43511F5110513809C
:10005B00C7AB10AA11A912120308602EC374109516
:10006B000FFFE513C39FE513500624C0250F800433
:10007B00250F2470FF1202ED12028C74012512F56C
:0A008B0012E43511F511051380C7CA
:010095002248
:06011D008F098D0A8B0B17
:10012300750D64E4F50CE50B850DF0842430F50EB4
:10013300E509250CFF7B007A00790EAD0A12000356
:10014300E50B850DF08485F00BE50D75F00A84F55C
:100153000D050CE50CC3940340CCE509250CFF7B8E
:0A016300FF7A0379A6AD0A0200033B
:06016D008F148D158B16A6
:1001730075180AE4F517E5168518F0842430F51987
:10018300E5142517FF7B007A007919AD15120003DA
:10019300E5168518F08485F016E51875F00A84F5E0
:1001A300180517E517C3940240CCE5142517FF7B08
:0A01B300FF7A0379A6AD15020003E0
:08037B007F967E25DEFEDFFC0B
:010383002257
:1001BD0020B10C12037B30B1FD12037B7F01222095
:1001CD00B00C12037B30B1FD12037B7F022220B2F3
:1001DD000C12037B30B1FD12037B7F032220B30C85
:0F01ED0012037B30B1FD12037B7F04227F0022BF
:0B036700EF1FAC0670011E4C70F62268
:1002B100D3EF9400EE940040147D6E7C00ED1D7030
:0D02C100011CED4C70F7EF1F70E61E80E38E
:0102CE00220D
:0503A100D2A0D2A12250
:08038D001203A1C2A0C2A122CB
:07039500C2A0D2A1D2A022F8
:02026300AD07E5
:10026500E4FB74807E00A803088006CEA2E713CEC7
:1002750013D8F8FFEDF582EF558224FF92A0D2A1A5
:06028500C2A10BBB08DC66
:01028B002250
:1002CF00E4FFD2A0FED2A130A00D7480A806088052
:0D02DF0002C313D8FC4207C2A10EBE08E8FE
:0102EC0022EF
:09038400A20192A0D2A1C2A122A3
:0C034200D2A0D2A1A2A09201C2A1A201EF
:01034E00228C
:040238008F098D0A93
:10023C001203A112038D7FA01202631203429200DB
:10024C00AF091202631203429200AF0A1202631248
:07025C00034292000203952A
:0201FC008F0969
:1001FE001203A112038D7FA012026312034292001A
:10020E00AF0912026312034292001203A112038D70
:10021E007FA112026312034292001202CF8F0AD202
:09022E0001120384120395AF0ACA
:0102370022A4
:0300000002035B9D
:0C035B00787FE4F6D8FD75812002009642
:10030800BB010689828A83E0225002E722BBFE02F3
:09031800E32289828A83E4932226
:00000001FF
