:0B02060048656C6C6F576F726C6400F1
:100138001201E67BFF7A027906E4FDFF1200A512A0
:1001480000038F08E508640B60F5E508640C60EFB0
:10015800E508640D60E91202257B007A007908E45D
:07016800FDFF1200A580D885
:1001B200C2A6C2A5C2A78F807F017E00120194D27F
:0B01C200A77F017E00120194C2A7225B
:0A016F00AB0AAA0BA90C1201CDFF88
:10017900D2A6C2A5C2A78F807F017E00120194D2A8
:0B018900A77F017E00120194C2A72294
:1001E6007F381201B27F0C1201B27F061201B27F74
:0401F600010201B24F
:050225007F010201B29F
:0800A5008F098B0A8A0B890CFC
:1000AD00E4F50DEDD394014003020137E509940FFA
:1000BD005078EDC394015039AB0AAA0BA90C12016B
:1000CD00CD6067C374109509FFE50DC39FE50D5015
:1000DD0006248025098004250924B0FF1201B212DF
:1000ED00016F7401250CF50CE4350BF50B050D8036
:1000FD00C7AB0AAA0BA90C1201CD602EC3741095C3
:10010D0009FFE50DC39FE50D500624C025098004A8
:10011D0025092470FF1201B212016F7401250CF52F
:0A012D000CE4350BF50B050D80C73F
:0101370022A5
:0B021100EF1FAC0670011E4C70F622BF
:10019400D3EF9400EE940040147D6E7C00ED1D704E
:0D01A400011CED4C70F7EF1F70E61E80E3AC
:0101B100222B
:08021C007FD87E25DEFEDFFC29
:0102240022B7
:100003007590FFC29720930912021C3093FD7F3134
:100013002220920912021C3092FD7F322220910984
:1000230012021C3091FD7F332220900912021C30F2
:1000330090FD7F34227590FFC29620930912021C13
:100043003093FD7F352220920912021C3092FD7FEE
:10005300362220910912021C3091FD7F3722209015
:100063000912021C3090FD7F38227590FFC2952043
:10007300930912021C3093FD7F3922209209120248
:100083001C3092FD7F302220910912021C3091FD19
:100093007F0C2220900912021C3090FD7F0D227FDD
:0200A3000B222E
:030000000201FA00
:0C01FA00787FE4F6D8FD75810D02013815
:1001CD00BB010689828A83E0225002E722BBFE0230
:0901DD00E32289828A83E4932263
:00000001FF
