:1005360054696D653A003230002F003A004D6F6EF7
:10054600005475657300576564005448555253004E
:0C055600465249005341540053554E00DA
:1005F1000708190203120D0C1F070F190203120D30
:020601000C1FCC
:100003001205DD1206397BFF7A057936E4FDFF120E
:1000130001D6E4FD7F8E1203F412060E7B007A00F4
:10002300790812012D7B007A00790F1202F57BFF0C
:100033007A05793CE4FD7F061201D6AB0FE4FD7F20
:10004300081204977BFF7A05793FE4FD7F0A1201CA
:10005300D6AB11E4FD7F0B1204977BFF7A05793F42
:10006300E4FD7F0D1201D6AB12E4FD7F0E1204975F
:10007300AB137D01E4FF1204977BFF7A0579417D81
:10008300017F021201D6AB147D017F031204977B1B
:10009300FF7A0579417D017F051201D6AB157D01FC
:1000A3007F06120497E510B4010D7BFF7A057943AF
:1000B3007D017F091201D6E510B4020D7BFF7A059D
:1000C30079477D017F091201D6E510B4030D7BFF4B
:1000D3007A05794C7D017F091201D6E510B4040D30
:1000E3007BFF7A0579507D017F091201D6E510B4B3
:1000F300050D7BFF7A0579567D017F091201D6E54F
:1001030010B4060D7BFF7A05795A7D017F09120130
:10011300D6E510640760030200287BFF7A05795E49
:0A0123007D017F091201D6020028B9
:0B062900EF1FAC0670011E4C70F622A3
:10058700D3EF9400EE940040147D6E7C00ED1D7057
:0D059700011CED4C70F7EF1F70E61E80E3B5
:0105A4002234
:02063E0020009A
:1005C200C2A6C2A5C2A78F807F017E00120587D274
:0B05D200A77F017E00120587C2A72250
:0A056200AB1DAA1EA91F12037AFFA9
:10056C00D2A6C2A5C2A78F807F017E00120587D2BA
:0B057C00A77F017E00120587C2A722A6
:1005DD007F381205C27F0C1205C27F061205C27F3D
:0405ED00010205C240
:050634007F010205C278
:0801D6008F1C8B1D8A1E891F7E
:1001DE00E4F520EDD394014003020268E51C940F70
:1001EE005078EDC394015039AB1DAA1EA91F1203FE
:1001FE007A6067C37410951CFFE520C39FE52050FD
:10020E00062480251C8004251C24B0FF1205C21272
:10021E0005627401251FF51FE4351EF51E052080AD
:10022E00C7AB1DAA1EA91F12037A602EC3741095A8
:10023E001CFFE520C39FE520500624C0251C80042A
:10024E00251C2470FF1205C21205627401251FF5CC
:0A025E001FE4351EF51E052080C7C1
:010268002273
:060447008F218D228B23A2
:10044D00752564E4F524E5238525F0842430F5260F
:10045D00E5212524FF7B007A007926AD221201D6F5
:10046D00E5238525F08485F023E52575F00A84F5CF
:10047D00250524E524C3940340CCE5212524FF7BE9
:0A048D00FF7A06793EAD220201D687
:060497008F168D178B1873
:10049D00751A0AE4F519E518851AF0842430F51B50
:1004AD00E5162519FF7B007A00791BAD171201D6D1
:1004BD00E518851AF08485F018E51A75F00A84F5AB
:1004CD001A0519E519C3940240CCE5162519FF7BD1
:0A04DD00FF7A06793EAD170201D642
:05063900C2B5C2B622AB
:0203F400A90757
:1003F600E4FBD2B574017E00A803088005C333CEA2
:1004060033CED8F9FFE9F582EF558224FF92B4D2B4
:10041600B6C2B60BBB08DDE4FB74017E00A8030878
:100426008005C333CE33CED8F9FFEDF582EF558282
:1004360024FF92B4D2B6C2B60BBB08DDC2B5C2B4B5
:010446002293
:0204E700A90763
:1004E900E4FDFBD2B5C2B474017E00A803088005FF
:1004F900C333CE33CED8F9FFE9F582EF558224FF15
:1005090092B4C2B6D2B60BBB08DDE4FBD2B6C2B612
:1005190030B40D7401A803088002C333D8FC420526
:0C0529000BBB08E8C2B6C2B5C2B4AF05F7
:0105350022A3
:030617001204E7E3
:0E061A00EFC4540F75F00AA4FEEF540F2EFF2C
:0106280022AF
:0A05A500AB16AA17A918120393FF62
:1005AF00EF75F00A84C454F0FEEF75F00A84EE255F
:0205BF00F0FF4B
:0105C1002217
:0A060400AB16AA17A918EF1203D2D3
:08060E007F0B7EBEDEFEDFFC67
:0106160022C1
:10012D008B168A178918E4FD7F8E1203F412060EC2
:10013D00AB16AA17A91812037AFF1205AFAD077FE8
:10014D008C1203F412060E9000011205A5AD077F67
:10015D008A1203F412060E9000021205A5AD077F58
:10016D00881203F412060EAB16AA17A918900003F5
:10017D001205ABAD077F861203F412060EAB16AA5D
:10018D0017A9189000041205ABAD077F841203F474
:10019D0012060EAB16AA17A9189000051205ABADE5
:1001AD00077F821203F412060EAB16AA17A9189038
:1001BD0000061205ABAD077F801203F412060E7D0B
:0901CD00807F8E1203F402060E7D
:1002F5008B168A1789187F8D120617AB16AA17A9B0
:1003050018EF1203C012060E7F8B1206179000011C
:100315001206047F891204E712061A9000021206DB
:10032500047F871204E712061AAB16AA17A91890BC
:10033500000312060A7F851204E712061AAB16AAF5
:1003450017A91890000412060A7F831204E7120603
:100355001AAB16AA17A91890000512060A7F811272
:1003650004E712061AAB16AA17A918900006EF1291
:0503750003D202060E98
:0300000002026990
:0C026900787FE4F6D8FD7581260202B013
:10037A00BB010689828A83E0225002E722BBFE0281
:09038A00E32289828A83E49322B4
:10039300BB010CE58229F582E5833AF583E022501F
:1003A30006E92582F8E622BBFE06E92582F8E22269
:0D03B300E58229F582E5833AF583E4932283
:1003C000BB010689828A83F0225002F722BBFE011C
:0203D000F32216
:1003D200F8BB010DE58229F582E5833AF583E8F061
:1003E200225006E92582C8F622BBFE05E92582C80D
:0203F200F222F5
:10027500020003E493A3F8E493A34003F68001F29C
:1002850008DFF48029E493A3F85407240CC8C3338A
:10029500C4540F4420C8834004F456800146F6DF59
:1002A500E4800B01020408102040809005F1E47EF3
:1002B500019360BCA3FF543F30E509541FFEE4934E
:1002C500A360010ECF54C025E060A840B8E493A315
:1002D500FAE493A3F8E493A3C8C582C8CAC583CA40
:1002E500F0A3C8C582C8CAC583CADFE9DEE780BEF8
:0106030000F6
:00000001FF
