:100CA60054656D703A00544C3A2B00544C3A2D0062
:100CB60054483A2B0054483A2D004C210048210054
:030CC600202000EB
:10047100E4FF120B9EBF010D7F01120B9EAC07E43E
:1004810012034080167F01120B9EAC07E412034059
:100491008F288E278D268C251203258F288E278D58
:1004A100268C257F02120B9EBF01157F03120B9E26
:1004B100AC07E41203408F248E238D228C218026E9
:1004C1007F03120B9EAC07E41203408F288E278D09
:1004D100268C25AF24AE23AD22AC211203258F2813
:1004E1008E278D268C25E4FFFEFDFCAB28AA27A9CB
:1004F10026A8251202AC40057D01E48002E4FDFF3F
:10050100120C06AF28AE27AD26AC25120374AD0739
:100511007F01120C06E4FFFEFDFCAB24AA23A922F5
:10052100A8211202AC40047D018002E4FD7F021289
:100531000C06AF24AE23AD22AC21120374AD077FAC
:1005410003120C06120D9F120DB37BFF7A0C79A6D4
:10055100E4FDFF020848E4F508120E2B8F08E508B8
:1005610064017077AF28AE27AD26AC25FBFA798000
:10057100783F1200158F288E278D268C25E4FFFEEB
:10058100FDFCAB28AA27A926A8251202AC40057DAF
:1005910001E48002E4FDFF120C06AF28AE27AD2670
:1005A100AC25120374AD077F01120C06E4FFFEFDBA
:1005B100FCAB24AA23A922A8211202AC40047D018C
:1005C1008002E4FD7F02120C06AF24AE23AD22AC03
:1005D10021120374AD077F03120C06E50864027053
:1005E10077AF28AE27AD26AC25FBFA798078BF120C
:1005F10000158F288E278D268C25E4FFFEFDFCAB90
:1006010028AA27A926A8251202AC40057D01E4806D
:1006110002E4FDFF120C06AF28AE27AD26AC251271
:100621000374AD077F01120C06E4FFFEFDFCAB2451
:10063100AA23A922A8211202AC40047D018002E470
:10064100FD7F02120C06AF24AE23AD22AC211203B2
:1006510074AD077F03120C06E50864037077AF24BD
:10066100AE23AD22AC21FBFA7980783F1200158FC1
:10067100248E238D228C21E4FFFEFDFCAB28AA27CA
:10068100A926A8251202AC40057D01E48002E4FD03
:10069100FF120C06AF28AE27AD26AC25120374ADB0
:1006A100077F01120C06E4FFFEFDFCAB24AA23A97F
:1006B10022A8211202AC40047D018002E4FD7F02E8
:1006C100120C06AF24AE23AD22AC21120374AD0788
:1006D1007F03120C06E50864047077AF24AE23ADE6
:1006E10022AC21FBFA798078BF1200158F248E236A
:1006F1008D228C21E4FFFEFDFCAB28AA27A926A8A8
:10070100251202AC40057D01E48002E4FDFF120CDC
:1007110006AF28AE27AD26AC25120374AD077F01C5
:10072100120C06E4FFFEFDFCAB24AA23A922A8219A
:100731001202AC40047D018002E4FD7F02120C062E
:10074100AF24AE23AD22AC21120374AD077F031297
:100751000C06120DE5120BDA8F2C8E2B8D2A8C29AB
:100761008F0E8E0D8D0C8C0BE4FD7F0512085EE45F
:10077100FFFEFDFCAB28AA27A926A8251202AC7B07
:10078100FF40157A0C79AC7D01E4FF1208FAAF281D
:10079100AE27AD26AC2580167A0C79B17D01E4FF38
:1007A1001208FAAF28AE27AD26AC25120325120395
:1007B10074AB077D017F04120A6AE4FFFEFDFCAB06
:1007C10024AA23A922A8211202AC7BFF40157A0C8E
:1007D10079B67D017F091208FAAF24AE23AD22ACB0
:1007E1002180167A0C79BB7D017F091208FAAF24AA
:1007F100AE23AD22AC21120325120374AB077D0198
:100801007F0D120A6AAF28AE27AD26AC25AB2CAA04
:100811002BA92AA8291202AC500C7BFF7A0C79C0B3
:10082100E4FD7F0E8021AF24AE23AD22AC21AB2CA1
:10083100AA2BA92AA8291202AC601240107BFF7AC8
:100841000C79C3E4FD7F0E1208FA0205577BFF7A8B
:0D0851000C79C6E4FD7F0E1208FA0205576F
:03000B00020B0ADB
:100B0A00C0E0C0F0C083C082C0D075D000C000C0B1
:100B1A0001C002C003C004C005C006C007758A1818
:100B2A00758CFC052DE52DC394144006752D001215
:100B3A000A19D007D006D005D004D003D002D001BC
:0D0B4A00D000D0D0D082D083D0F0D0E032E7
:040C06008F098D0ABB
:100C0A00120E311200037FA0120C31120DF2920063
:100C1A00AF09120C31120DF29200AF0A120C311206
:070C2A000DF29200020E24FE
:020B9E008F09BD
:100BA000120E311200037FA0120C31120DF29200CE
:100BB000AF09120C31120DF29200120E3112000325
:100BC0007FA1120C31120DF29200120CC98F0AD2C1
:090BD00001120E0A120E24AF0AF4
:010BD90022F9
:0D0DE500120D587FCC120C5A7F44020C5A9C
:100BDA00120D587FCC120C5A7FBE120C5A120D05F8
:100BEA008F09120D05EFFEE509FFFDAC06EC1203B5
:0B0BFA003BE4FBFA7980784112020F07
:010C050022CC
:050E3100D2A0D2A122B5
:08000300120E31C2A0C2A122BD
:070E2400C2A0D2A1D2A0225E
:020C3100AD070D
:100C3300E4FB74807E00A803088006CEA2E713CEEF
:100C430013D8F8FFEDF582EF558224FF92A0D2A1CD
:060C5300C2A10BBB08DC8E
:010C59002278
:100CC900E4FFD2A0FED2A130A00D7480A80608804E
:0D0CD90002C313D8FC4207C2A10EBE08E8FA
:010CE60022EB
:090E0A00A20192A0D2A1C2A12212
:0C0DF200D2A0D2A1A2A09201C2A1A20135
:010DFE0022D2
:040E36007FDDDFFE7F
:010E3A002295
:040E3B007F1DDFFE3A
:010E3F002290
:040E40007F01DFFE51
:010E4400228B
:100D5800D2B7C2B7120E36D2B7120E3BA2B7920064
:080D6800120E36A200E433FF75
:010D70002260
:0F0DC700C2B7120E40A20092B77F16DFFED2B75E
:010DD60022FA
:100D7100C2B77F02DFFED2B77F02DFFEA2B79200C9
:060D81007F16DFFEA20058
:010D87002249
:020C5A00AD07E4
:100C5C00E4FB74017E00A803088005C333CE33CEB9
:100C6C00D8F9FFEDF582EF558224FF9200120DC7E3
:040C7C000BBB08DEC8
:010C80002251
:100D0500E4FEFD120D71500D7401A805088002C3A3
:0B0D150033D8FC42060DBD08EAAF0613
:010D200022B0
:0E0DD70074696D653A0030303A3030003A00F1
:100D8800022E00000134300132300133300131309D
:100D9F00758901C28DD28C758A18758CFCD2A9D237
:040DAF00AFC2B922F4
:100D2100120E457BFF7A0D79D7E4FDFF1208FA7B9D
:0C0D3100FF7A0D79DD7D01E4FF0208FA75
:100B57008F358D368B377B007A0079357D01E4FF41
:100B67001208FA7B007A0079367D017F011208FAB4
:100B77007BFF7A0D79E37D017F021208FA7B007A09
:100B87000079377D017F031208FA7B007A007938F4
:070B97007D017F040208FA52
:0B0DFF00EF1FAC0670011E4C70F622C6
:100CE700D3EF9400EE940040147D6E7C00ED1D70F0
:0D0CF700011CED4C70F7EF1F70E61E80E34E
:010D040022CC
:080E1C0020002D002B002E0028
:100D3D00C2A6C2A5C2A78F807F017E00120CE7D28A
:0B0D4D00A77F017E00120CE7C2A72266
:0A0C8100AB16AA17A9181203F5FF1D
:100C8B00D2A6C2A5C2A78F807F017E00120CE7D22D
:0B0C9B00A77F017E00120CE7C2A72219
:100DB3007F38120D3D7F0C120D3D7F06120D3D7FD6
:040DC30001020D3DDF
:050E45007F01020D3DDC
:0808FA008F158B168A1789186F
:10090200E4F519EDD39401400302098CE515940F27
:100912005078EDC394015039AB16AA17A9181203E7
:10092200F56067C374109515FFE519C39FE519506B
:1009320006248025158004251524B0FF120D3D12D2
:100942000C8174012518F518E43517F5170519807F
:10095200C7AB16AA17A9181203F5602EC374109517
:1009620015FFE519C39FE519500624C0251580041B
:1009720025152470FF120D3D120C8174012518F506
:0A09820018E43517F517051980C7B2
:01098C002248
:060A6A008F0F8D108B11AF
:100A7000751364E4F512E5118513F0842430F51440
:100A8000E50F2512FF7B007A007914AD101208FAE9
:100A9000E5118513F08485F011E51375F00A84F5EE
:100AA000130512E512C3940340CCE50F2512FF7B1A
:0A0AB000FF7A0E791CAD100208FA5F
:060ABA008F1A8D1B8B1C3E
:100AC000751E0AE4F51DE51C851EF0842430F51F13
:100AD000E51A251DFF7B007A00791FAD1B1208FA6D
:100AE000E51C851EF08485F01CE51E75F00A84F572
:100AF0001E051DE51DC3940240CCE51A251DFF7B94
:0A0B0000FF7A0E791CAD1B0208FA03
:10085E008F098D0AE4FFFEFDFCAB0EAA0DA90CA8B4
:10086E000B1202AC7BFF50207A0E791EAD0AAF0937
:10087E001208FAAF0EAE0DAD0CAC0B1203258F0E97
:10088E008E0D8D0C8C0B800B7A0E7920AD0AAF0974
:10089E001208FAE50904FFC007AF0EAE0DAD0CACA1
:1008AE000B120374AB07D007AD0A120A6AE50924CE
:1008BE0004FF7BFF7A0E7922AD0A1208FAE50924AD
:1008CE0005FFC0077F007E407D1C7C46AB0EAA0D47
:1008DE00A90CA80B1201061203747E007C277D1052
:0C08EE0012040EAB05D007AD0A020A6A26
:060D9800013900013A00E0
:080E13007F967E25DEFEDFFC68
:010E1B0022B4
:050E2B00AF3AE4F53AC6
:010E3000229F
:100A190020B10375390120B00375390220B203757D
:100A2900390320B30375390430B13530B03230B2EF
:100A39002F30B32CE539B40106E4F539753A01E5EF
:100A490039B40206E4F539753A02E539B40306E426
:100A5900F539753A03E539B40406E4F539753A040C
:010A6900226A
:10000E000203E0E86480F8E933E83360110460F03D
:10001E00ED33EC337009E8FCE9FDEAFEEBFF220458
:10002E0060DED3EB9FEA9EE99DE8C2E78CF0C2F753
:10003E0095F0400CE8CCF8E9CDF9EACEFAEBCFFB1F
:10004E001203AB85D0F05804700320D5B3E80470CA
:10005E00075002B2D50203EA92D5EC0460F7E4CC65
:10006E00C0E0C398F8603B94186008400DD0E0FBE8
:10007E000203C2E4FBFAC9FC8028E830E406E4C9B6
:10008E00FBE4CAFCE830E305E4C9CACBFCE854073C
:10009E006010F8C3E913F9EA13FAEB13FBEC13FC47
:1000AE00D8F130F52FC3E49CFCEF9BFFEE9AFEEDEA
:1000BE0099FDD0E0FBEF4E4D4C701222DB03020394
:1000CE00E7EC2CFCEF33FFEE33FEED33FDED30E7C6
:1000DE00EB0203C2EF2BFFEE3AFEED39FDD0E0FB53
:1000EE0050130BBB00030203EAED13FDEE13FEEFFC
:0800FE0013FFEC13FC0203C226
:10010600EC4D6011E8497017ED33EC3304600DE4F3
:10011600FCFFFEFD22E933E8330470F80203E01227
:1001260003AB58046009E4CC248150062850090228
:1001360003EA2840030203E7C0E0EB4A7044B980B3
:1001460006D0E0FB0203D6EF4E701CBD8008EBFF25
:10015600EAFEE9FD80EBE98DF0A4FEE5F00201EF91
:10016600E9CDF9EAFEEBFFEF89F0A4FCE5F0CE89D4
:10017600F0A42EFFE435F0CD89F0A42DFEE435F091
:100186008067EF4E7005BD80D780C3EF8BF0A4ACBF
:10019600F0EE8BF0A42CFCE435F0F8EF8AF0A42CFA
:1001A600E5F038FCE433CB8DF0A42CFCE5F03BF80D
:1001B600EE8AF0A42CFCE5F038F8E433CF89F0A4FD
:1001C6002CFCE5F038CF3400CE89F0A42FFFE5F003
:1001D6003EFEE433C98DF0A42EFEE5F039CD8AF05B
:1001E600A42FFFE5F03EFEE43DFD33D0E0FB5007D3
:1001F6000BBB000F0203EAEC2CFCEF33FFEE33FEE1
:06020600ED33FD0203C20E
:10020C000203EAEC5D046005E8590470030203E0A4
:10021C001203AB580460F6EC4860F2EC7004FDFE7F
:10022C00FF22C860DB2481C85009C39860025006C5
:10023C000203E79850CAF582E9294B4A7005AB8254
:10024C000203D675F0007C1A7880C3EF9BEE9AED12
:10025C0099400DC3EF9BFFEE9AFEED99FDE842F03D
:10026C00DC23ACF0D0E0FFD0E0FED0E0FDAB822090
:10027C00E7101BEB60BAEC2CFCEF33FFEE33FEED1A
:10028C0033FD0203C2E803F830E705C0F075F00057
:10029C00EF2FFFEE33FEED33FD40B830E7C280AAFE
:1002AC0074F8CC6480CCC86480C8F58204604FC3F9
:1002BC00EB9FF5F0EA9E42F0E99D42F0E89C45F098
:1002CC00603C501DE5825FFFE582D313CB5BCBF422
:1002DC002B5582FB50280ABA002409B9002008804B
:1002EC001DE5825BFBE582D313CF5FCFF4C3132FE5
:1002FC005582FF50090EBE00050DBD00010CC3EB6D
:10030C009FF5F0EA9E42F0E99D42F0E89C45F060D2
:09031C0007CC4820E701B3EC22F4
:10032500ED33EC33600A047003BD8004ECB2E7FCE6
:0103350022A5
:1003360075F020800E75F010800575F0087D007E42
:10034600007F003392D530D503120463EC3340109E
:10035600EF33FFEE33FEED33FDEC33FCD5F0ED224B
:0E036600E5F0247EA2D513CC92E7CDCEFF2287
:10037400EDD2E7CD33EC3392D524814006E4FFFE81
:10038400FDFC22FCE4CFCECDCC24E0501174FF80E0
:10039400EDC3CC13CCCD13CDCE13CECF13CF04707D
:0703A400F030D5DE02046316
:1003AB00E9D2E7C933E833F892D5EDD2E7CD33EC98
:0703BB0033FC5002B2D52211
:1003C200EC30E7100FBF000C0EBE00080DBD00049C
:1003D2000BEB6014A2D5EB13FCED92E7FD2274FF48
:1003E200FCFDFEFF22E480F8A2D574FF13FC7D80A1
:0303F200E480EFB5
:0300000002098D65
:0C098D00787FE4F6D8FD75813A0209D4A9
:1003F500BB010689828A83E0225002E722BBFE0206
:09040500E32289828A83E4932238
:10040E00BC000BBE0029EF8DF084FFADF022E4CCD2
:10041E00F875F008EF2FFFEE33FEEC33FCEE9DEC9B
:10042E00984005FCEE9DFE0FD5F0E9E4CEFD22EDE1
:10043E00F8F5F0EE8420D21CFEADF075F008EF2F2B
:10044E00FFED33FD4007985006D5F0F222C398FD1C
:05045E000FD5F0EA22B9
:0E046300C3E49FFFE49EFEE49DFDE49CFC22AA
:10099900020471E493A3F8E493A34003F68001F2FF
:1009A90008DFF48029E493A3F85407240CC8C3335F
:1009B900C4540F4420C8834004F456800146F6DF2E
:1009C900E4800B0102040810204080900D88E47E29
:1009D900019360BCA3FF543F30E509541FFEE49323
:1009E900A360010ECF54C025E060A840B8E493A3EA
:1009F900FAE493A3F8E493A3C8C582C8CAC583CA15
:100A0900F0A3C8C582C8CAC583CADFE9DEE780BECC
:010D9E000054
:00000001FF
