:0800CE007F057E50DEFEDFFC21
:0100D6002207
:100003008F09AE05AF06120093E509B401037580AD
:100013007FE509B402037580BFE509B40303758066
:10002300DFE509B404037580EFE509B405037580C2
:10003300F7E509B406037580FBE509B4070375808A
:10004300FDE509B408037580FE1200CE7580FF221A
:100053007508011200D77D3C7F011200037D427FAA
:10006300021200037DA97F031200037D857F041222
:1000730000037D857F051200037DA97F061200031F
:100083007D427F071200037D3C7F0812000380C678
:0500D700C2B6C2B52213
:02009300AD07B7
:10009500E4FC74807E00A804088006CEA2E713CE97
:1000A50013D8F8FFEDFBEF5B6004D2B48002C2B455
:0C00B500D2B6C2B60CBC08DAD2B5C2B597
:0100C100221C
:030000000200C239
:0C00C200787FE4F6D8FD75810902005338
:00000001FF
