:06014900416C6C656E00C4
:1001210012010D7BFF7A017949E4FDFF1200038082
:01013100F2DB
:1000D900C2A6C2A5C2A78F807F017E001200BBD233
:0B00E900A77F017E001200BBC2A7220F
:0A009600AB09AA0AA90B1200F4FF3F
:1000A000D2A6C2A5C2A78F807F017E001200BBD25C
:0B00B000A77F017E001200BBC2A72248
:10010D007F381200D97F0C1200D97F061200D97FDB
:04011D00010200D902
:05014F007F010200D950
:080003008F088B098A0A890BA2
:10000B00E4F50CEDD394014003020095E508940F41
:10001B005078EDC394015039AB09AA0AA90B120011
:10002B00F46067C374109508FFE50CC39FE50C5093
:10003B0006248025088004250824B0FF1200D9125D
:10004B0000967401250BF50BE4350AF50A050C80B7
:10005B00C7AB09AA0AA90B1200F4602EC374109542
:10006B0008FFE50CC39FE50C500624C0250880044F
:10007B0025082470FF1200D91200967401250BF588
:0A008B000BE4350AF50A050C80C7E6
:010095002248
:0B013E00EF1FAC0670011E4C70F62293
:1000BB00D3EF9400EE940040147D6E7C00ED1D7028
:0D00CB00011CED4C70F7EF1F70E61E80E386
:0100D8002205
:03000000020132C8
:0C013200787FE4F6D8FD75810C020121F5
:1000F400BB010689828A83E0225002E722BBFE020A
:09010400E32289828A83E493223C
:00000001FF
